:100000000C94D8000C94D3030C94F5000C94F500D8
:100010000C94F5000C94F5000C94F5000C94F5008C
:100020000C94F5000C94F5000C94F5000C94F5007C
:100030000C94F5000C94F5000C94F5000C94F5006C
:100040000C94F5000C94F5000C94F5000C94F5005C
:100050000C94F50004030904280368006F006F0086
:100060006E00790039003800340035004000670028
:100070006D00610069006C002E0063006F006D0070
:1000800034036D0069006E006900200043005000D9
:1000900043002D0033003000300020005500530095
:1000A000420020004B006500790062006F00610093
:1000B00072006400060334003200120101010000E6
:1000C00000084242ADDE980101020301090222004C
:1000D000010100403209040000010301010009216F
:1000E00001010001223F000705810308000A271EC5
:1000F0001F202122232425262D2E312F3033343268
:100100003637386A0405060708090A0B0C0D0E0F6E
:10011000101112131415161718191A1B1C1D6766D7
:1001200068396C3A3B3C3D3E292B4B2A4D282C4AE2
:10013000494C5052514F55575462595A5B5C5D5E61
:100140005F6061564E630102040810204080050183
:100150000906A101050719E029E715002501750128
:1001600095088102950175088103950575010508BB
:1001700019012905910295017503910395067508EA
:10018000150025650507190029658100C04546470A
:1001900065666700202B2D2E3031323334353637EB
:1001A000383968006364696E6F7073757858000041
:1001B00011241FBECFE5D4E0DEBFCDBF10E0A0E626
:1001C000B0E0ECEAF3E102C005900D92A037B10770
:1001D000D9F710E0A0E7B0E001C01D92A13BB10744
:1001E000E1F70E94C7020C94D4090C9400001F93FD
:1001F000162F2091620024FF0BC02091870038E861
:10020000232720938700DC01812FE8E8F0E007C076
:100210002AE520936200F7CF9D9191938150882326
:10022000D9F788E890E0612F0E944F051C5F10937A
:1002300062001F9108950F931F93CF93DF936091F6
:10024000970016160CF0E1C080919400CCE0D0E04D
:10025000C81BD109C556DF4F6350809193008D3282
:1002600009F0B7C08AE580936100683009F0C3C027
:100270009881892F807609F099C010928500898134
:10028000882381F49F7119F481E080938500109296
:10029000860085E890E0909396008093950090E822
:1002A00082E08FC0853021F48A818093980002C15A
:1002B000863009F05EC08B81813049F48AEB90E092
:1002C000909396008093950090EC82E17AC0823002
:1002D00049F48CEC90E0909396008093950090EC1C
:1002E00082E26FC0833071F58A81882349F484E506
:1002F00090E0909396008093950090EC84E061C02C
:10030000813049F488E590E09093960080939500C1
:1003100090EC88E256C0823049F480E890E09093F7
:1003200096008093950090EC84E34BC0833009F0F5
:10033000BFC084EB90E0909396008093950090EC82
:1003400086E03FC0813249F48EED90E090939600B4
:100350008093950090EC89E034C0823209F0A8C007
:100360008EE491E0909396008093950090EC8FE35B
:1003700028C0883019F48AE990E00AC0893021F455
:100380008A8180939A0096C08A3049F485E890E08B
:10039000909396008093950090E881E012C08B3096
:1003A00009F088C083EC8093870084C0CE010E944E
:1003B00070028F3F29F4988197FD8E8190E01FC0D5
:1003C00090E82F812223D9F42E812817C0F4822FA0
:1003D00016C08091700087FD0EC0CE010E94AD0254
:1003E0008F3F21F48EE18093610002C0882329F4BD
:1003F00090E08FEF04C090E801C090E080E090931F
:10040000700080936000109297008091610084FFDB
:1004100048C0809160008F3F09F443C0182F893095
:1004200008F018E0811B809360002091700020FF8D
:1004300002C003EC01C00BE42F5F20937000809199
:1004400095009091960026FF05C0212FFC01ADE795
:10045000B0E009C0DC01212FEDE7F0E00AC03491E3
:100460003D93319621502223D1F705C03D91319320
:1004700021502223D9F7810F911D909396008093EC
:1004800095008DE790E0612F0E944F05812F8C5FD2
:10049000183019F09FEF9093600000937C008093D8
:1004A00061008AE090B3957061F48150D9F705C07E
:1004B00090EC01C090E880E084CF109298001092F8
:1004C0009200DF91CF911F910F91089585B78360BE
:1004D00085BF8BB780648BBF83EC809387000895C2
:1004E000FC0184E790E090939600809395008081D2
:1004F0008076803271F58181813049F1893051F403
:10050000868197818130910521F581E0809371008A
:100510008FEF0895823019F483E790E012C08A309B
:1005200021F483818093730014C0833031F483817C
:10053000882379F410926F0008958B3061F48FE670
:1005400090E0909396008093950081E0089588E074
:10055000089580E0089580E008952091710022239D
:1005600091F0613081F4FC0180818093720081FF01
:1005700002C0919A01C091988091720082FF02C0DE
:10058000949A01C094981092710081E008952F927E
:100590003F924F925F926F927F928F929F92AF9213
:1005A000BF92CF92DF92EF92FF920F931F93DF9350
:1005B000CF9300D000D0CDB7DEB72FE088E190E038
:1005C0000FB6F894A89581BD0FBE21BD8FEF88BBF3
:1005D00017BA85BB14BA8AEF82BB87E181BB2CE2D4
:1005E0002A95F1F782E181BB85E083BF0E94660214
:1005F0007894CC24DD24AA24AA9431E0832E912C73
:1006000024E1522E94E7692E90E0792E88E0482E5E
:100610003324339422242394A8950E941B0180E064
:1006200090E0883070F421B32F7121BB22B3206E8B
:1006300022BBFC01EA5BFE4FE491E7BBE095E8BB1F
:1006400016C017BAA8BA21B32F7121BB41B39C01C0
:1006500023503040B40102C0660F771F2A95E2F79D
:100660009B01462B41BB32B32095232322BB78E765
:100670007A95F1F723B3FC01ED59FF4F3081231731
:1006800011F050926E00FC01ED59FF4F208301964E
:100690008B30910531F680916E00813009F05CC09D
:1006A000F301242D11922A95E9F7EE24FF2400E0AE
:1006B00010E031E020E0F801ED59FF4FB0806B2DE4
:1006C0006F3F09F43DC019822A8236C08A818B218E
:1006D00069F58981F701E80FF11DE251FF4FE491BF
:1006E000E63650F0F0E0E052FF4FE4918091740064
:1006F000E82BE09374001AC0EE23C1F03F5F38305E
:1007000080F021FD13C086E790E061E070E046E0F4
:1007100050E02C833B830E94E3082C8122603B81C4
:1007200005C0A32FB0E0AC58BF4FEC9389818F5F19
:1007300089838A81880F8A838981883008F4C6CFAB
:100740000F5F1F4F88E090E0E80EF91E0B30110597
:1007500009F0B1CF216001C020E080916E008823B4
:1007600019F0815080936E0008B600FE0AC038BEB2
:1007700080917300882329F09C2D953030F0EEEFA6
:10078000CE0ED22A09F448CF03C0C82EDD24D3945C
:100790008091620084FF40CF84E790E068E00E948F
:1007A000F700DD2439CFCF93CFB7CF93809BFECF17
:1007B000809B09C0809B07C0809B05C0809B03C0B5
:1007C000809B01C09EC0DF93C0919400DD27C55679
:1007D000DF4F809B02C0DF91EBCF2F930F931F93CE
:1007E00000B32FEF00FB20F94F933F9310B34FEF6F
:1007F000012700FB21F93BE031C04E7F012F10B3F0
:10080000216028C0102F4D7F2260000000B329C056
:100810004B7F2460012F000010B32BC010B3477F23
:1008200028602AC04F7E00B320612CC04F7D10B3DA
:1008300020622FC04F7B00B3206432C0422700B338
:1008400049934FEF0000102710FB20F910B31570EB
:10085000A9F1297F91F2012700FB21F900B3237F41
:1008600089F23150F0F1102710FB22F910B3277EE6
:1008700079F2012700FB23F92F7C81F200B31027C6
:1008800010FB24F92F7971F200C010B3012700FB8F
:1008900025F92F7359F200C000B3102710FB26F979
:1008A000223040F200C010B3012700FB27F92430AA
:1008B00028F64F77206810B30000F9CF3B503195F0
:1008C000333010E41ABFB8F0C31BD0400881033C9A
:1008D00041F10B3431F11981412F1F7720919200A2
:1008E000121731F4093691F10D3279F0013E69F0B9
:1008F0002227209399003F914F911F910F912F91A3
:10090000DF91CF91CFBFCF911895009399003F9180
:100910004F911F910F912F91DF91CAB7C6FD46CF1E
:10092000F0CF00919900002331F31091970011232B
:10093000A1F53430A2F13093970000939300109109
:1009400094003BE0311B3093940029C00091970044
:1009500001301CF50AE547FD09C03091610034FD06
:1009600020C000936100CCE7D0E01FC0309162004E
:1009700034FD17C000936200C7E8D0E016C0052719
:1009800010E002BB1FC0052722C0052727C005278E
:100990002CC0052710E002BB33C04AE503C042ED7E
:1009A00001C0432FC4E1D0E032E011B31560909A4A
:1009B00002B311BB5F9355E020E820FF052702BB7F
:1009C000279517951C3FD8F620FF0527279502BBD2
:1009D00017951C3FC0F620FF05272795179502BBEA
:1009E0001C3F98F620FF0527279517951C3F02BB53
:1009F00070F600C0499120FF052702BB2795179587
:100A00001C3F38F620FF0527279502BB17951C3F92
:100A100038F520FF05272795179502BB1C3F10F5D9
:100A200020FF0527279517951C3F02BBE8F4242FCC
:100A30003A9519F60A7F5F9102BB00C010919800A9
:100A4000C651D04011F01093920010E41ABF01601B
:100A500011B31A7F402F4A7F02BB11BB42BB4BCF61
:100A60000527D3CF0527D8CF0527DDCFA82FB92F4E
:100A70008FEF9FEF41E050EA615070F02D9138E028
:100A8000722F782796958795269570FF02C0842748
:100A900095273A95A9F7F0CF809590950895E6DFD0
:100AA0008D939D930895ACE0B0E0E9E5F5E00C94FA
:100AB0009D086C013B018A01FC011782168283812B
:100AC00081FD03C01EC1850104C04E010894811C34
:100AD000911CF601E380F301E3FC8591E3FE819133
:100AE0003F01882309F409C1853251F4E3FC2591C3
:100AF000E3FE21913F01253211F0FF2423C085E25E
:100B000090E0B6010E942C095801DDCF222309F4A0
:100B100089C084E991E0622F70E02C870E94D80898
:100B20002C85009749F4233219F4F0E1FF2A04C020
:100B30002C3669F420E8F22AF301E3FC2591E3FE68
:100B400021913F01F7FEE2CF222309F43FC08DE857
:100B500091E0622F70E02C870E94D8082C850097C6
:100B600041F064E0A62EB12CA00EB11E8FE390E000
:100B70000FC0233629F0233789F0233529F50CC01F
:100B800052E0A52EB12CA00EB11EF80180819181FA
:100B9000B6010E942C0997CFF1E0FF2A42E0A42E73
:100BA000B12CA00EB11EF8010081118104C090E0AB
:100BB000B6010E942C09F801F0FC8591F0FE8191AC
:100BC0008F018823A1F77FCF243611F0293651F504
:100BD000F7FE0BC034E0A32EB12CA00EB11EF8011D
:100BE00060817181828193810CC022E0A22EB12CA0
:100BF000A00EB11EF80160817181882777FD809574
:100C0000982FFFEEFF2297FF09C090958095709571
:100C100061957F4F8F4F9F4F20E4F22AA4012AE075
:100C200030E03BC0203799F0213730F42835B1F05F
:100C30002F3609F062C017C0253721F0283709F098
:100C40005CC007C08FEEF8222AE030E00EC0E0E181
:100C5000FE2AF4E2FF2A20E130E007C024E0F22A75
:100C600020E132E002C028E030E0F7FE0BC094E063
:100C7000A92EB12CA00EB11EF80160817181828174
:100C800093810AC082E0A82EB12CA00EB11EF801FB
:100C90006081718180E090E0A4010E947309E82ED8
:100CA000E8180F2D10E0F6FE05C08DE290E0B601C9
:100CB0000E942C0904FF15C0FE01EE0DF11D80817C
:100CC000803379F080E390E0B6010E942C0902FFA6
:100CD00008C0C80180729070885A9F4FB6010E9468
:100CE0002C09EA94F401EE0DF11D808190E0B6012B
:100CF0000E942C09EE20A9F7E6CEF6012681378165
:100D000002C02FEF3FEFC9012C96EEE00C94B9081A
:100D100020FD09C0FC0123FD05C022FF02C0738332
:100D20006283518340830895EF92FF920F931F9344
:100D300044FD10C046FD10C0DB01FC01AA0FBB1F23
:100D4000EE1FFF1F1094D1F76A0F7B1F8E1F9F1F8E
:100D500031E003C033E001C034E0660F771F881F25
:100D6000991F3150D1F77B018C01E20EF11C011D5E
:100D7000111DA8019701B701CA011F910F91FF90A2
:100D8000EF900895EF92FF920F931F93CF93DF930D
:100D90008C01C8010E94EA08EC0197FD09C00E947D
:100DA000D0080097B1F77E01CE01B8010E94580922
:100DB000CE01CDB7DEB7E6E00C94C1088F929F92CA
:100DC000AF92BF92DF92EF92FF920F931F93DF9348
:100DD000CF930F92CDB7DEB74C01D62E5A01122F0A
:100DE0000E94EA088B3219F08D3249F41068DA94C7
:100DF00009F46CC0C4010E94EA0897FD67C0312F56
:100E00003D7F232F2073F1F48033E1F4DA9409F469
:100E100048C0C40139830E94EA08398197FD41C066
:100E20003260883711F0883559F43064DA94C9F1AA
:100E3000C40139830E94EA08398197FF03C031C099
:100E400036FF3061EE24FF248701282F20532830FD
:100E500090F034FD09C02A3070F036FF05C02F7DB8
:100E6000422F4151463030F0B40139830E94580975
:100E7000398114C02750C801B701432F39830E941C
:100E800094067B018C0139813260DA9469F0C401E7
:100E900039830E94EA08398197FFD7CF31FD04C01A
:100EA00015C0EE24FF24870137FF08C01095009578
:100EB000F094E094E11CF11C011D111DC501B80165
:100EC000A701232F0E94880681E001C080E00F90D7
:100ED000CF91DF911F910F91FF90EF90DF90BF9026
:100EE000AF909F908F9008954F925F926F927F92F4
:100EF0009F92AF92BF92CF92DF92EF92FF920F93A9
:100F00001F93DF93CF930F92CDB7DEB78C015B01B8
:100F10003A01FC0117821682EE24E6C08F2D90E084
:100F20000E94D008009721F0C8010E94C206DCC0D0
:100F3000FF2DF53251F4F501C3FC3591C3FE31911B
:100F40005F01353271F455E2F52EC8010E94EA08BE
:100F500097FDD6C0F81609F4C7C0B8010E94580919
:100F6000D1C03A3241F4C3FC3591C3FE31915F01E7
:100F7000FF24F39401C0FF24992410C0F2E0FF2A5B
:100F8000692D70E080E090E040E20E949406962E89
:100F9000F501C3FC3591C3FE31915F01232F20532E
:100FA0002A3060F3F1FE03C0992019F4ABC09924F4
:100FB0009A94383619F03C3699F40AC0F501C3FC0E
:100FC0003591C3FE31915F01383651F4F8E0FF2AC4
:100FD00044E0F42AF501C3FC3591C3FE31915F0171
:100FE000332309F48FC084EA91E0632F70E03983E2
:100FF0000E94D8083981009709F484C08F2DF0FC35
:1010000008C0F3014080518042E050E0640E751E3C
:1010100002C0442455243E3651F4F80146815781DC
:1010200060E070E0C2012F2D0E9488065DC033365B
:1010300091F481FD02C099249394C8010E94EA08AA
:1010400097FD5EC04114510419F0F20181932F0104
:101050009A9499F747C0C80139830E94C206398122
:1010600097FD4EC03F3661F1303728F4343629F110
:10107000393649F52AC0333719F0353721F51DC007
:10108000C8010E94EA086C0197FD11C00E94D008B7
:10109000009729F0C601B8010E94580908C0411400
:1010A000510419F0F201C1922F019A9449F74114A9
:1010B0005104C1F0F201108215C0F0E2FF2A05C010
:1010C00040E1F42A02C050E4F52AC801692DA201CA
:1010D0002F2D0E94DE06882329F4F8018381807376
:1010E00079F410C0F0FEE394F801C380F501C3FC6D
:1010F000F590C3FEF1905F01FF2009F00FCF02C011
:10110000EE2019F02E2D30E002C02FEF3FEFC90185
:101110000F90CF91DF911F910F91FF90EF90DF9093
:10112000CF90BF90AF909F907F906F905F904F90C7
:1011300008952F923F924F925F926F927F928F927B
:101140009F92AF92BF92CF92DF92EF92FF920F9356
:101150001F93CF93DF93CDB7DEB7CA1BDB0B0FB660
:10116000F894DEBF0FBECDBF09942A88398848881D
:101170005F846E847D848C849B84AA84B984C884B3
:10118000DF80EE80FD800C811B81AA81B981CE0FAA
:10119000D11D0FB6F894DEBF0FBECDBFED0108958F
:1011A0009111FFC0803219F089508550D0F7089511
:1011B000FC010590061621F00020D9F7C001089522
:1011C0003197CF010895DC0101C06D93415050402B
:1011D000E0F70895CF93DF93EC013B8130FF36C0F9
:1011E00036FF09C03F7B3B838E819F8101969F83A1
:1011F0008E832A8129C032FF0FC0E881F981808166
:10120000992787FD9095009719F430623B831EC0A3
:101210003196F983E88311C0EA85FB85CE010995F3
:1012200097FF0BC02B813FEF8F3F930711F480E1B5
:1012300001C080E2822B8B8309C02E813F812F5F0A
:101240003F4F3F832E83282F30E002C02FEF3FEF28
:10125000C901DF91CF9108950F931F93CF93DF932F
:101260008C01EB018B8181FF1BC082FF0DC02E81A1
:101270003F818C819D812817390764F4E881F981C9
:101280000193F983E88306C0E885F985802F0995E5
:10129000009731F48E819F8101969F838E8302C0D7
:1012A0000FEF1FEFC801DF91CF911F910F910895AC
:1012B000FB01238120FF13C026FD11C03FEF8F3FAC
:1012C000930769F0828320642F7D238326813781F1
:1012D0002150304037832683282F30E002C02FEF83
:1012E0003FEFC9010895FA01AA27283051F12031B2
:1012F00081F1E8946F936E7F6E5F7F4F8F4F9F4FAA
:10130000AF4FB1E03ED0B4E03CD0670F781F891FEB
:101310009A1FA11D680F791F8A1F911DA11D6A0FB9
:10132000711D811D911DA11D20D009F468943F916C
:101330002AE0269F11243019305D3193DEF6CF016B
:101340000895462F4770405D4193B3E00FD0C9F731
:10135000F6CF462F4F70405D4A3318F0495D31FD9E
:101360004052419302D0A9F7EACFB4E0A6959795F1
:10137000879577956795BA95C9F7009761057105C7
:1013800008959B01AC010A2E069457954795379511
:101390002795BA95C9F7620F731F841F951FA01D6B
:0C13A0000895992788270895F894FFCF3E
:1013AC00FF5A5AFFFFFFFFFFFFFFFFFFFFFF050183
:00000001FF
